:100000000C94B3000C94D4000C94D4000C94D40041
:100010000C94D4000C9433030C9458030C94D40027
:100020000C94D4000C94D4000C94D4000C94D40000
:100030000C94D4000C94D4000C94D4000C94D400F0
:100040000C94D4000C94D4000C94D4000C94D400E0
:100050000C94D4000C94D4000C94D4000C94D400D0
:100060000C94D4000C94D4000C94D4000C94D400C0
:100070000C94D4000C94D4000C94D4000C94D400B0
:100080000C94D4000C94D4000C94D4000C94D400A0
:100090000C94D4000C94D4000C94D4000C94D40090
:1000A0000C94D4000C94D4000C94D4000C94D40080
:1000B0000C94D4000C94D4000C94D4000C94D40070
:1000C0000C94D4000C94D4000C94D4000C94D40060
:1000D0000C94D4000C94D4000C94D4000C94D40050
:1000E0000C94D40007634236B79BD8A71A396856D8
:1000F00018AEBAAB558C1D3CB7CC5763BD6DEDFD4A
:10010000753EF6177231BF000000803F0800000006
:10011000BE922449123EABAAAA2ABECDCCCC4C3EFC
:1001200000000080BEABAAAAAA3E00000000BF00EB
:100130000000803F0000000000084178D3BB4387E7
:10014000D1133D190E3CC3BD4282AD2B3E68EC82FB
:1001500076BED98FE1A93E4C80EFFFBE01C4FF7F80
:100160003F000000000011241FBECFEFD1E2DEBF30
:10017000CDBF00E00CBF12E0A0E0B2E0E0E4F6E1A9
:1001800000E00BBF02C007900D92A630B107D9F76F
:1001900012E0A6E0B2E001C01D92A636B107E1F779
:1001A0000E942C070C941E0B0C94000086E69EE027
:1001B0000197F1F700004098419880E388B9429A8E
:1001C000EFEFF7E43197F1F700C000004298E6E660
:1001D000FEE03197F1F700004098419888B9429AC3
:1001E000EFEFF7E43197F1F700C000004298E6E640
:1001F000FEE03197F1F700004098419888B9429AA3
:100200008FEF97E40197F1F700C000004298E6E60F
:10021000FEE03197F1F700004098419880E288B9FC
:10022000429A8FEF97E40197F1F700C000004298DF
:10023000089598B19F7098B998B1282F207F922B7C
:1002400098B940984198429AEFEFF7E43197F1F767
:1002500000C00000429898B19F7098B998B18295FB
:10026000807F892B88B940984198429A8FEF97E414
:100270000197F1F700C00000429808950E94D6004F
:1002800086E69EE00197F1F7000088E20E941901DE
:1002900081E00E94190186E00E9419018EE00E940F
:1002A000190180E80E941901089598B19F7098B9CA
:1002B00098B1282F207F922B98B9409A4198429A62
:1002C000EFEFF7E43197F1F700C00000429898B1E2
:1002D0009F7098B998B18295807F892B88B9409A90
:1002E0004198429A8FEF97E40197F1F700C0000020
:1002F0004298089580E80E9419010895CF93DF93F2
:10030000EC018881882331F021960E945501899162
:100310008823D9F7DF91CF910895823079F0833027
:1003200018F48130C9F405C0833069F08430A1F439
:100330000FC0862F81580E9419010895862F81547D
:100340000E9419010895862F8D560E941901089563
:10035000862F8D520E94190108950F931F93CF93FA
:10036000DF938A01E901882311F0662319F40E94C2
:100370007A0102C00E948D01C530D10571F4C80117
:1003800060E177E20E940A0BCB01C09690930C02C9
:1003900080930B020E94550103C0C430D105B9F40B
:1003A000C80168EE73E00E940A0BCB01709316023D
:1003B000609315026AE070E00E940A0BC096909369
:1003C0006102809360020E94550181E001C080E0DB
:1003D000C330D10511F08130B1F4C80164E670E09A
:1003E0000E940A0BCB0170931602609315026AE01B
:1003F00070E00E940A0BC09690935C0280935B02AF
:100400000E94550181E0C230D10511F08130B1F474
:100410002AE030E0C801B9010E940A0BCB017093B9
:10042000160260931502B9010E940A0BC0969093C0
:100430005802809357020E94550181E0C130D105D6
:1004400011F0813061F4C8016AE070E00E940A0B8B
:10045000C09690935F0280935E020E945501C63061
:10046000D1051CF085E40E945501DF91CF911F91C9
:100470000F91089587FD81950895CF93482FC62F3A
:1004800082E061E050E023E030E00E94AD0182E0D4
:1004900065E04C2F50E023E030E00E94AD01CF91A9
:1004A0000895CF93482FC62F81E061E050E023E00C
:1004B00030E00E94AD0181E065E04C2F50E023E088
:1004C00030E00E94AD01CF91089587B1876F87B961
:1004D00088B1807888B9089510BA11BA10920701CE
:1004E00010920801089581B18F6081B982B1807F37
:1004F00082B9EAE0F1E0808188618083EBE0F1E09D
:100500008081886180830895E1E2F1E010828FEFBD
:100510008093250191E0909324011092290180930A
:10052000280110922B0180932A0110922D018093B3
:100530002C0189EA809320018BE08083089592B199
:10054000907F8F70982B92B9089580E00E949F024F
:10055000089582E00E949F0208958AE00E949F020F
:10056000089586E00E949F020895883018F098E070
:1005700090937B008770806280937C00EAE7F0E0D4
:10058000808180648083808184FFFDCF80917900A9
:10059000EAE7F0E090819061908310927B000895EB
:1005A000CF93DF93D82FC62F842F0E94B502482FF8
:1005B00080931B028D2F6C2F50E023E030E00E94CF
:1005C000AD01DF91CF910895259A2D9AE1E8F0E0F1
:1005D00010828CEF8093850081E08093840093E00B
:1005E000909389008FEF8093880090938700809389
:1005F00086008BEA80938000109282008CE08083DA
:10060000089580E880937A000895E1E0F1E0808128
:1006100084608083E2E0F1E08081846080830895DB
:10062000E1E0F1E0808184608083E2E0F1E08081BC
:100630008B7F808308956C98749A08956D98759A4D
:100640000895F894EAE6F0E0808182608083EC9A75
:1006500078940895F894EAE6F0E0808188608083D9
:10066000ED9A789408951F920F920FB60F9211246D
:100670008F939F93AF93BF93809162029091630297
:10068000A0916402B09165020196A11DB11D8093F5
:10069000620290936302A0936402B0936502BF91DB
:1006A000AF919F918F910F900FBE0F901F90189553
:1006B0001F920F920FB60F9211248F939F93AF93B7
:1006C000BF938091170290911802A0911902B091E6
:1006D0001A020196A11DB11D809317029093180272
:1006E000A0931902B0931A02BF91AF919F918F917D
:1006F0000F900FBE0F901F90189580932801609364
:100700002A0108953B9A4398089586B1886088B974
:10071000089586B1877F88B9089580911302813248
:1007200030F00E94B10288EC68EC0E947D03809159
:1007300014028F3030F00E94B10282E868EC0E940F
:100740007D03809112028F3030F00E94B10288EC5C
:1007500062E80E947D03809113028132B8F080919B
:100760001202813298F080911402883278F48FEF6F
:100770009FEFA8E081509040A040E1F700C000004A
:100780000E94A50283E590E00E9447058091120235
:10079000803170F480911402803150F48091130202
:1007A000803130F40E94B10288EC68EC0E947D0335
:1007B00080911302873408F47EC08091140287343C
:1007C00008F479C080911202873408F474C00E9442
:1007D000A5020E9485038FEF9FEFACE2815090400D
:1007E000A040E1F700C000000E9489038FEF9FEF57
:1007F000ACE281509040A040E1F700C000000E94B0
:1008000085038FEF9FEFACE281509040A040E1F76D
:1008100000C000000E9489038FEF9FEFACE281507F
:100820009040A040E1F700C000000E9485038FEFD8
:100830009FEFACE281509040A040E1F700C0000083
:100840000E9489038FEF9FEFACE281509040A0405F
:10085000E1F700C000000E9485038FEF9FEFACE23C
:1008600081509040A040E1F700C000000E94890341
:100870008FEF9FEFACE281509040A040E1F700C0C5
:1008800000000E9485038FEF9FEFACE28150904003
:10089000A040E1F700C000000E9489038FEF9FEFA6
:1008A000ACE281509040A040E1F700C0000081E040
:1008B00090E00E941E0B08950F931F93682F70E025
:1008C00080E090E00E94B4082FEE39EC43E95FE34A
:1008D0000E94A509B62FA72F382F292F60E070E0BE
:1008E00080E89FE3422F0B2F1A2F232F342FA901CB
:1008F00098010E941B082AE939EF4EE255E40E9454
:10090000420920E030E040E251E40E9442090E94A6
:100910008308882777FD8095982F0E94B6080E944B
:100920008308862F972F23E08132920710F080E210
:1009300093E01F910F91089510BA11BA1092070118
:100940001092080191E090937C0010927B0081301E
:1009500021F488EC80937A00089580E880937A00EF
:1009600008951092790010927800843030F0883029
:1009700018F098E090937B008770806280937C00F1
:10098000EAE7F0E0808180648083808180818061FB
:100990008083809179000895C4E1D2E08E010150F6
:1009A00010400F2EFEEFEF2EFFEFFF2EF02DEC0E7E
:1009B000FD1E83E00E94B502888382E00E94B5029A
:1009C000F801808381E00E94B502F701808381E015
:1009D00061E043E00E94D00281E065E042E00E94D5
:1009E000D00281E069E041E00E94D0020E948D03C4
:1009F000E0CF0F931F93CF93BC0180E090E00E9463
:100A0000B40828E431EE42E850E40E941B080E943A
:100A10008808DC01CB01A0E0B0E010921702109230
:100A200018021092190210921A0210926202109289
:100A300063021092640210926502F1E0C0E04091FE
:100A40001702509118026091190270911A020091D8
:100A50006202109163022091640230916502EF2FCF
:100A6000481759076A077B0708F4EC2FEE2349F46F
:100A70004F2F081719072A073B0708F44C2F442368
:100A8000F1F20E94A502CF911F910F910895CF938B
:100A9000DF93EC010E94A902CE01880F991F0E94EA
:100AA000F904DF91CF910895CF93DF93EC010E9479
:100AB000AD02CE010E94F904DF91CF91089510920A
:100AC0008900682F70E080E090E00E94B4082BE776
:100AD00034E14EEE5FE30E941B0820E030E04CE082
:100AE00052E40E94B7070E94880860938800089526
:100AF00083E0809389008FEF809388000895813090
:100B0000910521F08230910541F404C08AE50E94EC
:100B10005F05089582E30E945F050895CF93DF93F8
:100B20001092070210920602C82FD92F80E090E0A1
:100B300083309105C1F481E090E00E947F058CEC48
:100B40009CE4A8E181509040A040E1F700C08DEB0B
:100B50000E945F058CEC9CE4A8E181509040A0408D
:100B6000E1F700C01FC08230910569F48DEB0E944F
:100B70005F058FEF9FE7A6E181509040A040E1F72D
:100B800000C000000FC08130910561F48CE80E9424
:100B90005F058FEF9FE7AFE181509040A040E1F704
:100BA00000C0000080910602909107020196909388
:100BB000070280930602C817D90708F0B9CFDF9162
:100BC000CF910895CF93DF931092070210920602FF
:100BD000C82FD92F80E090E083309105C1F482E0E6
:100BE00090E00E947F0586E696E2ACE0815090405E
:100BF000A040E1F780E00E945F058FEF9FE7ADE046
:100C000081509040A040E1F700C000001FC082303A
:100C1000910569F480E00E945F058FEF9FE7ADE0EA
:100C200081509040A040E1F700C000000FC081302B
:100C3000910561F48DE20E945F058FEF9FE7ADE0C3
:100C400081509040A040E1F700C000008091060272
:100C50009091070201969093070280930602C817AD
:100C6000D90708F0B9CFDF91CF910895EF92FF92A5
:100C70000F931F93CF93DF93EC010E94A5028E0187
:100C8000015010400730110508F04EC00F2EFCE156
:100C9000EF2EF2E0FF2EF02DF801EE0FFF1FEE0D0C
:100CA000FF1D808191810E94E20582E061E0AE013A
:100CB00022E030E00E94AD01CE010696880F991F18
:100CC0008E0D9F1DDC018D919C910E948E05AE01C1
:100CD000495F5F4F82E064E022E030E00E94AD01B6
:100CE0008AE50E945F058FEF9FE7A6E18150904063
:100CF000A040E1F700C00000809100029091010245
:100D0000019690930102809300028830910561F46E
:100D10008CE190E0909301028093000281E090E0EA
:100D20009093030280930202CE014597883091058B
:100D300008F03FC00F2EFCE1EF2EF2E0FF2EF02D69
:100D4000F801EE0FFF1FEE0DFF1D808191810E94C3
:100D5000E20582E061E0AE0122E030E00E94AD01F8
:100D6000CE010897880F991FE80EF91ED7018D91C3
:100D70009C910E948E05AE014750504082E061E098
:100D800022E030E00E94AD018AE50E945F058FEF0E
:100D90009FE7A3E481509040A040E1F700C000002D
:100DA000809100029091010201979093010280933B
:100DB00000020E94B10284EB64EB0E947D038FEF7E
:100DC0009FEFACE281509040A040E1F700C00000EE
:100DD000DF91CF911F910F91FF90EF90089580E0E8
:100DE0000E949C0482E00E94B5028093120283E07C
:100DF0000E94B5028093130281E00E94B5028093A5
:100E0000140282E00E94B5028093120283E00E94E5
:100E1000B5028093130281E00E94B5028093140210
:100E200008950E9465020E9473020E941B030E94A3
:100E30001E030E9482030895F8940E94110780E027
:100E40000E949C040E94E4020E9484020E942103EA
:100E50000E942A03789408950E941C070E94D600DD
:100E60000E943E0181E090E090931D0280931C025D
:100E700090931F0280931E02909321028093200280
:100E80009093230280932202909325028093240260
:100E90009093270280932602909329028093280240
:100EA00022E030E030932B0220932A0243E050E00E
:100EB00050932D0240932C0290932F0280932E0288
:100EC00050933102409330025093330240933202E8
:100ED0009093350280933402309337022093360288
:100EE000309339022093380290933B0280933A0268
:100EF00090933D0280933C0230933F0220933E0248
:100F000050934102409340023093430220934202A7
:100F10009093450280934402909347028093460247
:100F2000909349028093480290934B0280934A0227
:100F300090934D0280934C0290934F0280934E0207
:100F400090935102809350029093530280935202E7
:100F50008AE50E945F058FEF9FEFA3E281509040EA
:100F6000A040E1F700C000000E94CC045058BB270D
:100F7000AA270ED04DC13ED130F043D120F031F43C
:100F80009F3F11F41EF433C10EF4E095E7FB29C135
:100F9000E92F4FD180F3BA176207730784079507CB
:100FA00018F071F49EF567C10EF4E0950B2EBA2F80
:100FB000A02D0B01B90190010C01CA01A00111245F
:100FC000FF27591B99F0593F50F4503E68F11A160B
:100FD000F040A22F232F342F4427585FF3CF46959C
:100FE00037952795A795F0405395C9F77EF41F16BE
:100FF000BA0B620B730B840BBAF09150A1F0FF0F88
:10100000BB1F661F771F881FC2F70EC0BA0F621F73
:10101000731F841F48F4879577956795B795F79563
:101020009E3F08F0B3CF9395880F08F09927EE0FF5
:101030009795879508950CD0EBC0E3D040F0DAD0B7
:1010400030F021F45F3F19F0CCC0511115C1CFC071
:10105000F0D098F39923C9F35523B1F3951B550BA1
:10106000BB27AA2762177307840738F09F5F5F4F7B
:10107000220F331F441FAA1FA9F333D00E2E3AF0BC
:10108000E0E830D091505040E695001CCAF729D0D6
:10109000FE2F27D0660F771F881FBB1F2617370725
:1010A0004807AB07B0E809F0BB0B802DBF01FF2755
:1010B00093585F4F2AF09E3F510568F092C0DCC004
:1010C0005F3FECF3983EDCF3869577956795B7958F
:1010D000F7959F5FC9F7880F911D9695879597F9AA
:1010E0000895E1E0660F771F881FBB1F6217730723
:1010F0008407BA0720F0621B730B840BBA0BEE1F38
:1011000088F7E095089504D06894B111B5C00895AA
:1011100098D088F09F5790F0B92F9927B751A0F039
:10112000D1F0660F771F881F991F1AF0BA95C9F77B
:1011300012C0B13081F09FD0B1E008959CC0672FFC
:10114000782F8827B85F39F0B93FCCF3869577952B
:101150006795B395D9F73EF4909580957095619514
:101160007F4F8F4F9F4F0895E89409C097FB3EF43F
:1011700090958095709561957F4F8F4F9F4F9923E4
:10118000A9F0F92F96E9BB279395F6958795779562
:101190006795B795F111F8CFFAF4BB0F11F460FF22
:1011A0001BC06F5F7F4F8F4F9F4F16C0882311F07A
:1011B00096E911C0772321F09EE8872F762F05C08E
:1011C000662371F096E8862F70E060E02AF09A9529
:1011D000660F771F881FDAF7880F9695879597F91E
:1011E000089597F99F6780E870E060E008959FEFA9
:1011F00080EC089500240A941616170618060906AE
:10120000089500240A94121613061406050608957C
:10121000092E0394000C11F4882352F0BB0F40F404
:10122000BF2B11F460FF04C06F5F7F4F8F4F9F4F44
:10123000089557FD9058440F551F59F05F3F71F0C6
:101240004795880F97FB991F61F09F3F79F087952D
:101250000895121613061406551FF2CF4695F1DFB6
:1012600008C0161617061806991FF1CF8695710546
:10127000610508940895E894BB2766277727CB017A
:1012800097F908950BD0C4CFB5DF28F0BADF18F076
:10129000952309F0A6CFABCF1124EECFCADFA0F380
:1012A000959FD1F3950F50E0551F629FF001729FFB
:1012B000BB27F00DB11D639FAA27F00DB11DAA1F1A
:1012C000649F6627B00DA11D661F829F2227B00D67
:1012D000A11D621F739FB00DA11D621F839FA00DF2
:1012E000611D221F749F3327A00D611D231F849F42
:1012F000600D211D822F762F6A2F11249F57504099
:101300008AF0E1F088234AF0EE0FFF1FBB1F661F33
:10131000771F881F91505040A9F79E3F510570F0EC
:1013200060CFAACF5F3FECF3983EDCF386957795CC
:101330006795B795F795E7959F5FC1F7FE2B880FE7
:10134000911D9695879597F90895FA01EE0FFF1F65
:1013500030962105310599F16115710561F48038E8
:10136000BFE39B0749F168949038810561F08038AC
:10137000BFEF9B0741F0992342F5FF3FE10531059F
:10138000210511F1E8940894E795D901AA2329F4DD
:10139000AB2FBE2FF85FD0F310C0FF5F70F4A6959F
:1013A000E0F7F73950F019F0FF3A38F49F779F9340
:1013B0000CD00F9007FC905808953EF018CF60E0D5
:1013C00070E080E89FE308954FE79F775F934F9326
:1013D0003F932F939ED02F913F914F915F9152DF7A
:1013E00005C019F40EF0FDCE46CF01CF2ADFC8F3B9
:1013F0009638C0F707F80F92E8942BE33AEA48EBE7
:101400005FE74EDF0F920F920F924DB75EB70F92CC
:10141000C0D0E4EEF0E016D04F915F91EF91FF91D4
:10142000E595EE1FFF1F49F0FE57E0684427EE0FD9
:10143000441FFA95E1F74195550B32D00F9007FE06
:1014400026C00895DF93CF931F930F93FF92EF92DF
:10145000DF927B018C01689405C0DA2EEF011EDF5C
:10146000FE01E894A5912591359145915591AEF3F2
:10147000EF018EDDFE019701A801DA9479F7DF9084
:10148000EF90FF900F911F91CF91DF9108959B01F5
:10149000AC0160E070E080E89FE3CDCDA2CEACC0AF
:1014A000D0DEE8F39923D9F3940F511DBBF391508B
:1014B000504094F059F0882332F0660F771F881F50
:1014C00091505040C1F79E3F510544F7880F911D40
:1014D0009695879597F908955F3FACF0983E9CF0FC
:1014E000BB27869577956795B79508F4B160939576
:1014F000C1F7BB0F58F711F460FFE8CF6F5F7F4F64
:101500008F4F9F4FE3CFB8CE0EF076C070CE689469
:1015100068CE97DEC8F39923D1F3C6F3DF93CF9358
:101520001F930F93FF92C92FDD2788232AF021975D
:10153000660F771F881FDAF720E030E040E85FEBA6
:101540009FE3883920F0803E30F021968F770FDDC1
:10155000ECE0F1E003C00BDDE9E3F1E073DF8B01C8
:10156000BE01EC01FB2E6F5771097595771F880B33
:10157000990BFCDD28E132E741E35FE38FDEAF2D1D
:101580009801AE01FF900F911F91CF91DF9100DD87
:101590003FCEFA01DC01AA0FBB1F9B01AC01BF5774
:1015A00028F422273327442750781FC0B75188F4E6
:1015B000AB2F0024469537952795011CA395D2F3B0
:1015C000002069F0220F331F441FB395DAF30DD0CA
:1015D000CDCC61307105A0E88A07B94630F49B0193
:1015E000AC016627772788279078309621F02083F2
:1015F00031834283538308959F3F31F0915020F40B
:10160000879577956795B795880F911D96958795DE
:1016100097F90895AA1BBB1B51E107C0AA1FBB1F66
:10162000A617B70710F0A61BB70B881F991F5A956E
:10163000A9F780959095BC01CD010895F894FFCF4E
:061640000100010004019D
:00000001FF
